120250909000080000000022132799000200000000000902460COMPANIA CORPORATE                      08300321609001000120250909643N                          000000000000074236958                                                                                  
2C00079652232NICOLAS Pinzon                          022324784          000000000008225800A0000090001CITIBANK                                                                        02025090922N        00000000000000000000000000000           N        
2C00079456122Sonia Cantor                            0265684511         000000000009332100A0003700001COLTEFINANCIERA                                                                 02025090923N        00000000000000000000000000000           N        
2C00035214455Steven Guzman                           026552232          000000000004489400A0002920001CONFIAR                                                                         02025090924N        00000000000570000089514147691           N        
2C00079258147Dario  Salas                            022514256          000000000006569800A0002830001COOP FINAN DEANTIQ                                                              02025090925N        00000000000170000089514147692           N        
2C00021478415Jorge  Paramo                           029825147          000000000007625800A0002890001COTRAFA                                                                         02025090926N        00000000000270000089514147693           N        
2C00045971569Camilo Torres                           023215478          000000000008715100A0001210001JURISCOOP                                                                       02025090927N        00000000000180000089514147694           N        