120250909000670000000010037580000200000000000902460EmpresaEP03                             08300321609005000120250909112N                                                                                                                                
2N08999992392INSTITUTO COLOMBIANO DE BIENESTAR FAMILI01256064106        000000000000598799A   02300198484000049579670100000300001001PAICBF79137889        20250909CONTRERASPMONTEN12303014161500N                                                N        
2N08300097830CRUZ BLANCA                             02205011661        000000000000574100A   00100198484000049579670100000300001001EPS02379137889        20250909CONTRERASPMONTEN12303014161500N                                                N        
2N08600669427COMPENSAR                               0223764902921      000000000000559800A   00700198484000049579670100000300001001CCF24 79137889        20250909CONTRERASPMONTEN12303014161500N                                                N        
2N08600111536LA PREVISORA VIDA ANTES ISS RIESGOS PROF02492402110        000000000000798700A   0010019848400004957967010000030000100114-23 79137889        20250909CONTRERASPMONTEN12303014161500N                                                N        
2N08002248088PORVENIR                                01110150213080     000000000000914700A   0020019848400004957967010000030000100123030179137889        20250909CONTRERASPMONTEN12303014161500N                                                N        
2N08300097830CRUZ BLANCA                             02205011661        000000000000659900A   00100198484000050239670100000200001001EPS02379421443        20250909CARDONACSUAREZFL12303014232800N                                                N        
2N08002248088PORVENIR                                01110150213080     000000000000714700A   0020019848400005023967010000010000100123030179421443        20250909CARDONAPSUAREZTL12303014232800N                                                N        
2N08600111536LA PREVISORA VIDA ANTES ISS RIESGOS PROF02492402110        000000000000412300A   0010019848400005337967010000010000100114-23 49759094        20250909VILLALBAOBARRERA12303010544700N                                                N        
2N08002248088PORVENIR                                01110150213080     000000000000728800A   0020019848400005337967010000010000100123030149759094        20250909VILLALBAPBARRERA12303010544700N                                                N        
2N08001409496CAFESALUD                               02066022328        000000000000746300A   00100198484000053609670100000100001001EPS00345498896        20250909DIAZPDAZAPLIAPMA12303010464100N                                                N        
2N08999990341SENA                                    0117728466356      000000000000042500A   00700198484000053829670100000400001001PASENA20485059        20250909EDGAREPINZONCASA12308400005382N                                                N        
2N08999992392INSTITUTO COLOMBIANO DE BIENESTAR FAMILI01256064106        000000000000521400A   02300198484000053829670100000400001001PAICBF20485059        20250909EDGAREPINZONCASA12308400005382N                                                N        
2N08300035647FAMISANAR                               02063022156        000000000000171900A   05200198484000053829670100000100001001EPS01720485059        20250909EDGAREPINZONCASA12308400005382N                                                N        
2N08002514406SANITAS                                 02033608134        000000000000813200A   00100198484000053829670100000100001001EPS00520485059        20250909EDGAREPINZONCASA12308400005382N                                                N        
2N08050004271COOMEVA                                 02101049948        000000000000819600A   05200198484000053829670100000100001001EPS01620485059        20250909EDGAREPINZONCASA12308400005382N                                                N        
2N08300097830CRUZ BLANCA                             02205011661        000000000000711500A   00100198484000053829670100000100001001EPS02320485059        20250909EDGAREPINZONCASA12308400005382N                                                N        
2N08600073361COLSUBSIDIO                             02059002485        000000000000076600A   05200198484000053829670100000400001001CCF22 20485059        20250909EDGAREPINZONCASA12308400005382N                                                N        
2N08600111536LA PREVISORA VIDA ANTES ISS RIESGOS PROF02492402110        000000000000422500A   0010019848400005382967010000040000100114-23 20485059        20250909EDGAREPINZONCASA12308400005382N                                                N        
2N08002248278ING                                     01006069998059     000000000000059600A   0510019848400005382967010000010000100123080120485059        20250909EDGAREPINZONCASA12308400005382N                                                N        
2N08600138161ISS SEGURO SOCIAL                       01200122166        000000000000761900A   0230019848400005382967010000010000100125-11 20485059        20250909EDGAREPINZONCASA12308400005382N                                                N        
2N08002248088PORVENIR                                01110150213080     000000000047189100A   0020019848400005382967010000010000100123030120485059        20250909EDGAREPINZONCASA12308400005382N                                                N        
2N08002279406CITICOLFONDOS                           024522164351       000000000030051200A   0190019848400005382967010000010000100123100120485059        20250909EDGAREPINZONCASA12308400005382N                                                N        
9000034000000001535108000000034000000000472408000000000008778000000000966                                                                                                                                                                                 
