1202509090000900000000418059606002000000000009024607EmpresaEP01                            08300321609995000120250909010N                                                 1000000000000000000000000
2C00052665151VENEGAS PARRA SANDRA PATRICIA           00                 000000000751425865H999900100002025031101060Corporate Giros UAT 20250311 bOGOTA codigo ofi                                                           0                                                                N000000000000000000
4C00052665338SUAREZ CARVAJAL GUIRNALDA PATRICIA      
2C00052665414GARCIA VENEGAS MAGDA  JULIET            00                 000000000960000000B999900100002025031102030Corporate Giros UAT 20250311 bOGOTA codigo ofi                                                           23057596938                                                      N000000000000000000
2C00052665504VENEGAS PARRA GILMA                     00                 000000000082000000B999900100002025031103030Corporate Giros UAT 20250311 bOGOTA codigo ofi                                                           23057596938                                                      N000000000000000000
2C00052665553BERNAL ADRIANA DEL PILAR                00                 000000000045000000B999900100002025031104030Corporate Giros UAT 20250311 bOGOTA codigo ofi                                                           23176560878                                                      N000000000000000000
2C00052665696CONTRERAS CASTRO JENNY                  00                 000000000631087698E999900100002025031105060Corporate Giros UAT 20250311 bOGOTA codigo ofi                                                           0                                                                N000000000000000000
2C00052665920LOVERA RAMIREZ MARIA ESPERANZA          00                 000000000484567698E999900100002025031106060Corporate Giros UAT 20250311 bOGOTA codigo ofi                                                           0                                                                N000000000000000000
2C00052666080ROJAS BECERRA DIANA MARIA               00                 000000000055000000B999900100002025031107030Corporate Giros UAT 20250311 bOGOTA codigo ofi                                                           23052589632                                                      N000000000000000000
2C00052666429GOMEZ RIVERA OLGA LUCIA                 00                 000000000796514799E999900100002025031108060Corporate Giros UAT 20250311 bOGOTA codigo ofi                                                           0                                                                N000000000000000000
4C00052666642HERNANDEZ CORDOBA ANA MILENA            
2C00052666815TIBAVIZCO CUERVO LIBIA LUCERO           00                 000000000375000000E999900100002025031109060Corporate Giros UAT 20250311 bOGOTA codigo ofi                                                           2362522144                                                       N000000000000000000
4C00052667075ARIAS NIAMPIRA YOLANDA EMILCE           