120250909000620000000000034919000200000000000902460COMPANIA CORPORATE                      08300321609001000120250909112N                                                                                                                                 
2N08900000468Colbuck                                 01000000612        000000000000014250A0000010001BOGOTA                                                                          02025090902N                                                N        
2N08025896322Pruebas Historia                        01000000752        000000000000051400A0000010001BOGOTA                                                                          02025090903N                                                N        
2C00007217716Pedro Daniel Ballestreros Quintana      01000000885        000000000000025100A0000010001BOGOTA                                                                          02025090904N                                                N        
2E00444444001BILBAO SEPULVEDA JOHANA PATRICIA        02557298841        000000000006540000A0000130001C 0000320023340                                                                 02100236330N                                                N        
2E00444444325BILBAO GONZALEZ GLORIA                  02202350120789     000000000003270000A0000320001C 0000320023340                                                                 02100236331N                                                N        
2E00444444857CEBALLOS SOTO LUIS ALBERTO              02518708057        000000000003270000A0000520001C 0000320023340                                                                 02100234572N                                                N        
2E00444444832CEBALLOS GARCIA JUAN GUILLERMO          0224041708527      000000000009810000A0000320001C 0000320023340                                                                 02100234576N                                                N        
2E00444444985CEBALLOS GALLO LUZ MARINA               02598043123        000000000003270000A0000010001C 0000320023340                                                                 02100234577N                                                N        