120250909000620000000000034919000200000000000902460COMPANIA CORPORATE                      08300321609003000120250909112N                                                                                                                                 
2C00320023340Liliana Toro                            01588025692        000000000000011400A0000010001BOGOTA                                                                          02025090914N                                                N        
2C00202725640Prueba Luis                             01000014464        000000000000011567A0000010001BOGOTA                                                                          02025090915N                                                N        
2C01069550409Elias Dany Ubierna Alvaran              01000015974        000000000000011667A0000010001BOGOTA                                                                          02025090916N                                                N        