120250909000620000000000034919000200000000000902460COMPANIA CORPORATE                      08300321609002000120250909112N                                                                                                                                 
2N08900000468Colbuck                                 01000000612        000000000000014250A0000010001BOGOTA                                                                          02025090902N                                                N        
2N08025896322Pruebas Historia                        01000000752        000000000000051400A0000010001BOGOTA                                                                          02025090903N                                                N        
2C00007217716Pedro Daniel Ballestreros Quintana      01000000885        000000000000025100A0000010001BOGOTA                                                                          02025090904N                                                N        