120250909000000000000000000000000200000000000902460Corporate                               08300321609020000120250909434N                                                                                                                                 
2C00320023340ALBERTO RUIZ                            01588025692        000000000166925900A0000010001C 0000320023340                                                                 0                                                           N        
2C00098659033BETANCUR ACOSTA FRANCISCO ANTONIO       02516821860        000000000003270000A0000520001C 0000320023340                                                                 0                                                           N        
2C01036394836BETANCUR ARCILA LIBARDO ANDRES          0255600013903      000000000026160000A0000070001C 0000320023340                                                                 0                                                           N        
2C00043466630BETANCUR SOTO MARIA DORA                02557166535        000000000003270000A0000130001C 0000320023340                                                                 02100236303                                                 N        
2C00071726300BETANCUR VALENCIA JOSE NORBEY           02509875469        000000000003270000A0000520001C 0000320023340                                                                 02100236306                                                 N        
2C01114388968BETANCUR HOLGUIN CRISTIAN ALBERTO       02757292891        000000000006540000A0000130001C 0000320023340                                                                 02100236307                                                 N        
2C01039450434BETANCUR ALVAREZ YUDY JOHANA            02752103093        000000000006540000A0000010001C 0000320023340                                                                 02100236313                                                 N        
2C01020401501BLANQUICET BERMUDEZ LAURA CAROLINA      02350151999        000000000003270000A0000130001C 0000320023340                                                                 02100236315                                                 N        
2C00042692444BETANCUR DIAZ NATALIA                   02153001904        000000000003270000A0000130001C 0000320023340                                                                 02100236302                                                 N        
2C01035861160BETANCUR SUAREZ OSCAR STIVEN            02349255935        000000000003270000A0000010001C 0000320023340                                                                 02100236301                                                 N        
2C00070977130BETANCUR LOPEZ GUSTAVO ARNULFO          02584315519        000000000009810000A0000010001C 0000320023340                                                                 02100236300                                                 N        
2C00008436225BETANCUR VARGAS FABIO                   0224090051843      000000000007520000A0000320001C 0000320023340                                                                 02100236299                                                 N        
2C01000884214BETANCOURT JARAMILLO YESICA MARIA       02431243799        000000000000040900A0000010001C 0000320023340                                                                 02100236298                                                 N        
2C00016053262BETANCUR PELAEZ CARLOS MARIO            02191021500        000000000003270000A0000020001C 0000320023340                                                                 02100236297                                                 N        
2C00070568412BETANCUR SANCHEZ LUIS ALONSO            0224087286124      000000000003270000A0000320001C 0000320023340                                                                 02100236296                                                 N        
2C00098638936BETANCUR RESTREPO EDWIN ANDRES          02379056658        000000000003270000A0000010001C 0000320023340                                                                 02100236293                                                 N        
2C00039452076BLANDON OROZCO NORALBA DE JESUS         02757245196        000000000003270000A0000130001C 0000320023340                                                                 02100236316                                                 N        
2C01020393871BLANDON VALENCIA JOSE LUIS              02266213164        000000000003270000A0000130001C 0000320023340                                                                 02100236317                                                 N        
2C00008323088BLANDON VALENCIA DIDIER ANTONIO         0224081115798      000000000003760000A0000320001C 0000320023340                                                                 02100236318                                                 N        
2C00071267254BLANCO TRILLOS ARLEY                    02517903121        000000000009810000A0000520001C 0000320023340                                                                 02100236319                                                 N        
2C01026155220BLANDON MORALES CRISTIAN                02509974338        000000000003270000A0000520001C 0000320023340                                                                 02100236320                                                 N        
2C00070663385BLANDON CARDONA JHON FREDY              02976029728        000000000003270000A0000130001C 0000320023340                                                                 02100236321                                                 N        
2C01027953984BLANCO MORELO NORA LUZ                  0224065941849      000000000003760000A0000320001C 0000320023340                                                                 02100236322                                                 N        
2C00011812063BLANDON GOMEZ DARWIN                    02476334024        000000000003270000A0000010001C 0000320023340                                                                 02100236323                                                 N        
2C00032294091BLANDON ECHAVARRIA YONNY                02618045561        000000000003270000A0000010001C 0000320023340                                                                 02100236324                                                 N        
2C01036608542BLANDON OCHOA ASTRID VICTORIA           0224054711567      000000000006540000A0000320001C 0000320023340                                                                 02100236325                                                 N        
2C00070878240BLANCO PINZON GERMAN ALEXANDER          02443117544        000000000003270000A0000010001C 0000320023340                                                                 02100236326                                                 N        
2C00071254853BLANCO JULIO JHON NILSON                0224078518377      000000000003270000A0000320001C 0000320023340                                                                 02100236327                                                 N        
2C01127598947BISI CERTUCHE UMBERTO                   02346710689        000000000003270000A0000520001C 0000320023340                                                                 02100236328                                                 N        
2C01020394209BILBAO YEPES JUAN GABRIEL               02653004259        000000000003270000A0000010001C 0000320023340                                                                 02100236329                                                 N        
2C01037577810BILBAO SEPULVEDA JOHANA PATRICIA        02557298841        000000000006540000A0000130001C 0000320023340                                                                 02100236330                                                 N        
2C00043077847BILBAO GONZALEZ GLORIA                  02202350120789     000000000003270000A0000320001C 0000320023340                                                                 02100236331                                                 N        
2C01020394441CEBALLOS SOTO LUIS ALBERTO              02518708057        000000000003270000A0000520001C 0000320023340                                                                 02100234572                                                 N        
2C00098628682CEBALLOS GARCIA JUAN GUILLERMO          0224041708527      000000000009810000A0000320001C 0000320023340                                                                 02100234576                                                 N        
2C00039449249CEBALLOS GALLO LUZ MARINA               02598043123        000000000003270000A0000010001C 0000320023340                                                                 02100234577                                                 N        
2C00043090825BOTERO CARMONA JULIETA                  02518727370        000000000003270000A0000520001C 0000320023340                                                                 02100235328                                                 N        
2C00015386105BOTERO CHALARCA FABIAN DARIO            02267050763        000000000007520000A0000010001C 0000320023340                                                                 02100235329                                                 N        
2C01037571097BOTERO VELEZ DARLY YOHANA               02518810879        000000000006540000A0000520001C 0000320023340                                                                 02100235330                                                 N        
2C00032564195BOTERO MUNETON CLAUDIA MARCELA          02644329047        000000000006540000A0000010001C 0000320023340                                                                 02100235331                                                 N        
2C01128276527BOTERO PEREZ MONICA ALEXANDRA           02420819492        000000000003270000A0000230001C 0000320023340                                                                 02100235332                                                 N        
2C01152694739BOTERO RUA SANTIAGO                     0224064179278      000000000003270000A0000320001C 0000320023340                                                                 02100235333                                                 N        
2C00025108558BOTERO SALGADO BLANCA ELENA             02018460015657     000000000003270000A0000400001C 0000320023340                                                                 02100235334                                                 N        
2C00071141486BOTERO GUTIERREZ JULIO HERNAN           02394176705        000000000003270000A0000130001C 0000320023340                                                                 02100235335                                                 N        
2C00015377744BOTERO TOBON LUIS GUILLERMO             02557805454        000000000006540000A0000130001C 0000320023340                                                                 02100235336                                                 N        
2C00043163472BOTERO BETANCUR MARIA ISABEL            02156043077        000000000006540000A0000010001C 0000320023340                                                                 02100235324                                                 N        
2C00003593516BOTERO CARDONA RAUL EDILBERTO           02382390052        000000000009810000A0000010001C 0000320023340                                                                 02100235325                                                 N        
2C00070135286BOTERO CASTRILLON SIMON DE JESUS        02349167726        000000000009810000A0000010001C 0000320023340                                                                 02100235326                                                 N        
2C01128273358BOTERO VELEZ PAULA ANDREA               0224059964986      000000000006540000A0000320001C 0000320023340                                                                 02100235327                                                 N        
2C00043915389DAVID BERRIO SANDRA MILENA              02653048108        000000000003270000A0000010001C 0000320023340                                                                 02100234768                                                 N        
2C01073982946DAVID VELASQUEZ INDIRA SAUDITH          0224051938969      000000000003270000A0000320001C 0000320023340                                                                 02100234769                                                 N        
2C00008028523DAVID QUIROZ CARLOS ANDRES              02153090006        000000000003270000A0000130001C 0000320023340                                                                 02100234770                                                 N        
2C00039416504DAVILA DIAZ LUZ DARY                    0224058826416      000000000003760000A0000320001C 0000320023340                                                                 02100234771                                                 N        
2C00021532580CORRALES ROJAS PAULA ANDREA             0224095465036      000000000003270000A0000320001C 0000320023340                                                                 02100234960                                                 N        
2C01042093300DAVID MANCO YENIFER TATIANA             02250159399        000000000003270000A0000010001C 0000320023340                                                                 02100234824                                                 N        
2C01001137361DAVID VILLA YENNIFER DAHIANA            020849007745       000000000003270000A0000130001C 0000320023340                                                                 02100234825                                                 N        
2C01214734077DAVID GARCIA ALEXANDRA                  02517955139        000000000003270000A0000520001C 0000320023340                                                                 02100234826                                                 N        
2C01127947052DAVILA ARRIETA ANDDY ALBERTO            02416230118        000000000006540000A0000130001C 0000320023340                                                                 02100234827                                                 N        
2C00098638791DAVILA MEJIA JUAN GUILLERMO             02653049254        000000000003270000A0000010001C 0000320023340                                                                 02100234828                                                 N        
2C00018469871DAVID MARTINEZ WILMAR ALONSO            0224063955020      000000000003270000A0000320001C 0000320023340                                                                 02100234829                                                 N        
2C00098665198BETANCUR HENAO IVAN ARTURO              02512802062        000000000006540000A0000520001C 0000320023340                                                                 02100236288                                                 N        
2C00071755011BETANCUR MORALES OSCAR DARIO            02217077007        000000000003270000A0000010001C 0000320023340                                                                 02100236289                                                 N        
2C00071719368BETANCUR VILLADA JOHN MARIO             02370168346        000000000009810000A0000130001C 0000320023340                                                                 02100236291                                                 N        
2C00043656917BETANCUR GOMEZ LEIDI DAYANA             02514302421        000000000006540000A0000010001C 0000320023340                                                                 02100236292                                                 N        
2C01128419873BILBAO ZAPATA ALEJANDRA                 02508894560        000000000003270000A0000520001C 0000320023340                                                                 02100236332                                                 N        
2C00071220575BOTERO PAREJA BERNARDO ALONSO           0291010025800      000000000003270000A0000120001C 0000320023340                                                                 02100236431                                                 N        
2C01007226700BOSSIO MARIN LUIS JAVIER                02518761973        000000000000244800A0000520001C 0000320023340                                                                 02100236432                                                 N        
2C00016699249BORRERO BURGOS DIEGO FERNANDO           027902056648       000000000003270000A0000190001C 0000320023340                                                                 02100236433                                                 N        
2C00073197330BORNACHERA RAMOS EDUARDO RAFAEL         0224055976886      000000000007520000A0000320001C 0000320023340                                                                 02100236434                                                 N        
2C01000203754BORJA GUERRERO PAOLA ANDREA             02476334057        000000000003270000A0000010001C 0000320023340                                                                 02100236435                                                 N        
2C01028016820BORJA ESTRADA MARICELA                  0224075503725      000000000003760000A0000320001C 0000320023340                                                                 02100236436                                                 N        
2C00071315274BORJA HOLGUIN WILSON                    0224057909914      000000000006540000A0000320001C 0000320023340                                                                 02100236391                                                 N        
2C01039287924BORJA CANAVERAL FRANY ALEXANDER         0224093987655      000000000006540000A0000320001C 0000320023340                                                                 02100236392                                                 N        
2C00071783592BORJA CARVAJAL ANDRES EDUARDO           02178374302        000000000000058500A0000010001C 0000320023340                                                                 02100236393                                                 N        
2C01001580841BORJA  NATALIA ANDREA                   02434229803        000000000006540000A0000010001C 0000320023340                                                                 02100236394                                                 N        
2C00050880661BORJAS YANEZ MARTA LUCIA                02502952380        000000000006540000A0000520001C 0000320023340                                                                 02100236395                                                 N        
2C00071795398BORJA  LUIS ALBERTO                     02943033068        000000000006540000A0000130001C 0000320023340                                                                 02100236396                                                 N        
2C00043417106BORJA TORRES ARACELLY                   02433251279        000000000003270000A0000010001C 0000320023340                                                                 02100236397                                                 N        
2C01098756465BORJA MORA CARLOS MAURICIO              02332210855        000000000006540000A0000130001C 0000320023340                                                                 02100236398                                                 N        
2C00071983022BORJA RIVERA OSCAR ALBEIRO              0224054739154      000000000003760000A0000320001C 0000320023340                                                                 02100236399                                                 N        
2C01038810838BORJA DOMICO ELMER DAVID                02618056717        000000000009810000A0000010001C 0000320023340                                                                 02100236400                                                 N        
2C00032276072BORJA ECHAVARRIA MARIA DE JESUS         02052323557        000000000003270000A0000130001C 0000320023340                                                                 02100236401                                                 N        
2C00071750155BORJA BETANCUR VICTOR HUGO              02515892276        000000000006540000A0000520001C 0000320023340                                                                 02100236402                                                 N        
2C00071224186BORJA PEREZ ARLEY                       02266290964        000000000003270000A0000130001C 0000320023340                                                                 02100236403                                                 N        
2C00071989532BONOLIS ROJAS DIONISIO                  0224060325721      000000000007520000A0000320001C 0000320023340                                                                 02100236404                                                 N        
2C00021448588BONNET RIVILLAS BEATRIZ GLORIA          02413030123444     000000000000096500A0000400001C 0000320023340                                                                 02100236405                                                 N        
2C01035861002BORJA  YON JAIRO                        020241110964       000000000003270000A0000130001C 0000320023340                                                                 02100236437                                                 N        
2C00071251588BOLIVAR MARIN ONALDYS                   0224060349392      000000000018800000A0000320001C 0000320023340                                                                 02100236469                                                 N        
2C00098478963BOLIVAR CARMONA EITER ALBERTO           021882081899       000000000003270000A0000190001C 0000320023340                                                                 02100236470                                                 N        
2C00032243129BOLIVAR ARCILA KATERINE                 02294200068        000000000006540000A0000010001C 0000320023340                                                                 02100236471                                                 N        
2C00098635716BOLIVAR CARMONA ALEJANDRO               020370000200253197 000000000003270000A0000130001C 0000320023340                                                                 02100236472                                                 N        
2C00043597220BOLIVAR TABORDA LINA PATRICIA           02502927978        000000000006540000A0000520001C 0000320023340                                                                 02100236473                                                 N        
2C01102855084BOLIVAR ARTEAGA JOSE LUIS               02232267864        000000000003270000A0000010001C 0000320023340                                                                 02100236474                                                 N        
2C00098712689BOLIVAR MORENO JUAN FERNANDO            02512849741        000000000003270000A0000520001C 0000320023340                                                                 02100236475                                                 N        
2C00043271868BOLIVAR LONDONO CLARA MONICA            020371275710       000000000006540000A0000130001C 0000320023340                                                                 02100236476                                                 N        
2C01000766857BOLIVAR DEOSSA JULIO CESAR              02156081531        000000000003270000A0000010001C 0000320023340                                                                 02100236477                                                 N        
2C01036400989BETANCUR ARISTIZABAL MARIA ALEJANDR     02285294914        000000000003270000A0000010001C 0000320023340                                                                 02100236333                                                 N        
2C00070321219BETANCUR HINCAPIE JOSE LIBARDO          02349111427        000000000003270000A0000010001C 0000320023340                                                                 02100236334                                                 N        
2C01038063170BETANCUR GOMEZ HERNAN ANTONIO           02294314059        000000000003270000A0000010001C 0000320023340                                                                 02100236335                                                 N        
2C01015277236BETANCUR RESTREPO DEISY YAMILE          02413092021257     000000000003760000A0000400001C 0000320023340                                                                 02100236336                                                 N        
2C00043670059BETANCUR BETANCUR MARIA EUGENIA         02214076168        000000000003270000A0000010001C 0000320023340                                                                 02100236337                                                 N        
